{
  "_format": "hh-sol-artifact-1",
  "contractName": "Multisig",
  "sourceName": "contracts/Multisig.sol",
  "abi": [
    {
      "inputs": [
        {
          "internalType": "address[]",
          "name": "_owners",
          "type": "address[]"
        },
        {
          "internalType": "uint256",
          "name": "_required",
          "type": "uint256"
        }
      ],
      "stateMutability": "nonpayable",
      "type": "constructor"
    },
    {
      "anonymous": false,
      "inputs": [
        {
          "indexed": true,
          "internalType": "address",
          "name": "_from",
          "type": "address"
        },
        {
          "indexed": true,
          "internalType": "address",
          "name": "_to",
          "type": "address"
        },
        {
          "indexed": true,
          "internalType": "uint256",
          "name": "counter",
          "type": "uint256"
        },
        {
          "indexed": false,
          "internalType": "address",
          "name": "_approver",
          "type": "address"
        },
        {
          "indexed": false,
          "internalType": "uint256",
          "name": "_amount",
          "type": "uint256"
        }
      ],
      "name": "Approve",
      "type": "event"
    },
    {
      "anonymous": false,
      "inputs": [
        {
          "indexed": true,
          "internalType": "address",
          "name": "_from",
          "type": "address"
        },
        {
          "indexed": true,
          "internalType": "address",
          "name": "_to",
          "type": "address"
        },
        {
          "indexed": true,
          "internalType": "uint256",
          "name": "counter",
          "type": "uint256"
        },
        {
          "indexed": false,
          "internalType": "bytes",
          "name": "data",
          "type": "bytes"
        },
        {
          "indexed": false,
          "internalType": "uint256",
          "name": "value",
          "type": "uint256"
        }
      ],
      "name": "Created",
      "type": "event"
    },
    {
      "anonymous": false,
      "inputs": [
        {
          "indexed": true,
          "internalType": "address",
          "name": "_from",
          "type": "address"
        },
        {
          "indexed": true,
          "internalType": "address",
          "name": "_to",
          "type": "address"
        },
        {
          "indexed": true,
          "internalType": "uint256",
          "name": "counter",
          "type": "uint256"
        },
        {
          "indexed": false,
          "internalType": "uint256",
          "name": "value",
          "type": "uint256"
        }
      ],
      "name": "Send",
      "type": "event"
    },
    {
      "inputs": [
        {
          "internalType": "uint256",
          "name": "_id",
          "type": "uint256"
        }
      ],
      "name": "approve",
      "outputs": [],
      "stateMutability": "nonpayable",
      "type": "function"
    },
    {
      "inputs": [
        {
          "internalType": "uint256",
          "name": "",
          "type": "uint256"
        },
        {
          "internalType": "address",
          "name": "",
          "type": "address"
        }
      ],
      "name": "approved",
      "outputs": [
        {
          "internalType": "bool",
          "name": "",
          "type": "bool"
        }
      ],
      "stateMutability": "view",
      "type": "function"
    },
    {
      "inputs": [
        {
          "internalType": "address",
          "name": "_to",
          "type": "address"
        },
        {
          "internalType": "uint256",
          "name": "_amount",
          "type": "uint256"
        },
        {
          "internalType": "bytes",
          "name": "_data",
          "type": "bytes"
        }
      ],
      "name": "createTransaction",
      "outputs": [],
      "stateMutability": "payable",
      "type": "function"
    },
    {
      "inputs": [
        {
          "internalType": "uint256",
          "name": "",
          "type": "uint256"
        }
      ],
      "name": "multisigOwners",
      "outputs": [
        {
          "internalType": "address",
          "name": "",
          "type": "address"
        }
      ],
      "stateMutability": "view",
      "type": "function"
    },
    {
      "inputs": [],
      "name": "required",
      "outputs": [
        {
          "internalType": "uint256",
          "name": "",
          "type": "uint256"
        }
      ],
      "stateMutability": "view",
      "type": "function"
    },
    {
      "inputs": [
        {
          "internalType": "uint256",
          "name": "_id",
          "type": "uint256"
        }
      ],
      "name": "sendTx",
      "outputs": [],
      "stateMutability": "payable",
      "type": "function"
    },
    {
      "inputs": [],
      "name": "transactionCounter",
      "outputs": [
        {
          "internalType": "uint256",
          "name": "",
          "type": "uint256"
        }
      ],
      "stateMutability": "view",
      "type": "function"
    },
    {
      "inputs": [
        {
          "internalType": "uint256",
          "name": "",
          "type": "uint256"
        }
      ],
      "name": "transactionList",
      "outputs": [
        {
          "internalType": "address",
          "name": "to",
          "type": "address"
        },
        {
          "internalType": "address",
          "name": "from",
          "type": "address"
        },
        {
          "internalType": "uint256",
          "name": "value",
          "type": "uint256"
        },
        {
          "internalType": "bytes",
          "name": "data",
          "type": "bytes"
        },
        {
          "internalType": "bool",
          "name": "executed",
          "type": "bool"
        }
      ],
      "stateMutability": "view",
      "type": "function"
    }
  ],
  "bytecode": "0x60806040523480156200001157600080fd5b5060405162001102380380620011028339810160408190526200003491620001c4565b808251146200004257600080fd5b60005b8251811015620001885760008382815181106200006657620000666200029e565b602090810291909101015160019092019190506001600160a01b038116620000c55760405162461bcd60e51b815260206004820152600d60248201526c56616c6964206164647265737360981b60448201526064015b60405180910390fd5b6001600160a01b03811660009081526004602052604090205460ff1615620001305760405162461bcd60e51b815260206004820152601360248201527f4f776e657220616c7265616479206578697374000000000000000000000000006044820152606401620000bc565b600080546001810182559080527f290decd9548b62a8d60345a988386fc84ba6bc95484008f6362f93160ef3e5630180546001600160a01b0319166001600160a01b0392909216919091179055600282905562000045565b505050620002b4565b634e487b7160e01b600052604160045260246000fd5b80516001600160a01b0381168114620001bf57600080fd5b919050565b60008060408385031215620001d857600080fd5b82516001600160401b0380821115620001f057600080fd5b818501915085601f8301126200020557600080fd5b81516020828211156200021c576200021c62000191565b8160051b604051601f19603f8301168101818110868211171562000244576200024462000191565b6040529283528183019350848101820192898411156200026357600080fd5b948201945b838610156200028c576200027c86620001a7565b8552948201949382019362000268565b97909101519698969750505050505050565b634e487b7160e01b600052603260045260246000fd5b610e3e80620002c46000396000f3fe60806040526004361061007b5760003560e01c80638bebea9a1161004e5780638bebea9a14610161578063a9496e7514610176578063b759f95414610189578063dc8452cd146101a957600080fd5b806304ef5b2114610080578063101cfda8146100ba57806314e887e8146100f25780638253951a14610116575b600080fd5b34801561008c57600080fd5b506100a061009b366004610b84565b6101bf565b6040516100b1959493929190610bcd565b60405180910390f35b3480156100c657600080fd5b506100da6100d5366004610b84565b61029c565b6040516001600160a01b0390911681526020016100b1565b3480156100fe57600080fd5b5061010860015481565b6040519081526020016100b1565b34801561012257600080fd5b50610151610131366004610c45565b600360209081526000928352604080842090915290825290205460ff1681565b60405190151581526020016100b1565b61017461016f366004610b84565b6102c6565b005b610174610184366004610c87565b6106ef565b34801561019557600080fd5b506101746101a4366004610b84565b6108c9565b3480156101b557600080fd5b5061010860025481565b600581815481106101cf57600080fd5b600091825260209091206005909102018054600182015460028301546003840180546001600160a01b03948516965092909316939092909161021090610d52565b80601f016020809104026020016040519081016040528092919081815260200182805461023c90610d52565b80156102895780601f1061025e57610100808354040283529160200191610289565b820191906000526020600020905b81548152906001019060200180831161026c57829003601f168201915b5050506004909301549192505060ff1685565b600081815481106102ac57600080fd5b6000918252602090912001546001600160a01b0316905081565b600080600583815481106102dc576102dc610d8d565b6000918252602082206005918202015481546001600160a01b0390911693508590811061030b5761030b610d8d565b906000526020600020906005020160020154905060006005858154811061033457610334610d8d565b6000918252602082206005918202016001015481546001600160a01b0390911693508790811061036657610366610d8d565b9060005260206000209060050201600301805461038290610d52565b80601f01602080910402602001604051908101604052809291908181526020018280546103ae90610d52565b80156103fb5780601f106103d0576101008083540402835291602001916103fb565b820191906000526020600020905b8154815290600101906020018083116103de57829003601f168201915b5050505050905060006005878154811061041757610417610d8d565b600091825260209091206004600590920201015460ff1690506001600160a01b038316331461047c5760405162461bcd60e51b815260206004820152600c60248201526b2bb937b7339029b2b73232b960a11b60448201526064015b60405180910390fd5b8334146104bd5760405162461bcd60e51b815260206004820152600f60248201526e546f206c6974746c652076616c756560881b6044820152606401610473565b801561050b5760405162461bcd60e51b815260206004820152601c60248201527f5472616e73616374696f6e20616c7265616479206578656375746564000000006044820152606401610473565b60005b6000548110156105835760008881526003602052604081208154829081908590811061053c5761053c610d8d565b60009182526020808320909101546001600160a01b0316835282019290925260400190205460ff169050801561057a57610577886001610db9565b97505b5060010161050e565b5060025486141561068d576000856001600160a01b031634846040516105a99190610dd1565b60006040518083038185875af1925050503d80600081146105e6576040519150601f19603f3d011682016040523d82523d6000602084013e6105eb565b606091505b50509050806106315760405162461bcd60e51b81526020600482015260126024820152711d1c985b9cd858dd1a5bdb8819985a5b195960721b6044820152606401610473565b600191506000965087866001600160a01b0316336001600160a01b03167f9d0fd0eb4d878bee25698230ff61916343544367c75bd1e5fa8cbdf137d07e698860405161067f91815260200190565b60405180910390a4506106e6565b60405162461bcd60e51b815260206004820152602860248201527f616c6c206f776e65727320686176656e742061636365707420746865207472616044820152673739b0b1ba34b7b760c11b6064820152608401610473565b50505050505050565b8134146107315760405162461bcd60e51b815260206004820152601060248201526f151bc81b1a5d1d1b1948185b5bdd5b9d60821b6044820152606401610473565b6040805160a0810182526001600160a01b038086168252336020808401918252938301868152606084018681526000608086018190526005805460018101825591819052865191027f036b6384b5eca791c62761152d0c79bb0604c104a5fb6f4eb0703f3154bb3db0810180549287166001600160a01b031993841617815594517f036b6384b5eca791c62761152d0c79bb0604c104a5fb6f4eb0703f3154bb3db1820180549190971692169190911790945590517f036b6384b5eca791c62761152d0c79bb0604c104a5fb6f4eb0703f3154bb3db284015551805193949193610842937f036b6384b5eca791c62761152d0c79bb0604c104a5fb6f4eb0703f3154bb3db301929190910190610aeb565b50608091909101516004909101805460ff1916911515919091179055600154604080518181526000818301526020810185905290516001600160a01b0386169133917fb16fab32523d72bfe337a8563a0638aceeafa1f6f916d18119135b72f19014c8916060908290030190a4600180549060006108bf83610ded565b9190505550505050565b6000805b60005481101561092157600081815481106108ea576108ea610d8d565b6000918252602090912001546001600160a01b031633141561090f5760019150610921565b8061091981610ded565b9150506108cd565b50806001146109695760405162461bcd60e51b81526020600482015260146024820152732737ba10309036bab63a34b9b4b39037bbb732b960611b6044820152606401610473565b600082815260036020908152604080832033845290915290205460ff1680156109d45760405162461bcd60e51b815260206004820152601e60248201527f617070726f76656420616c726561647920627920746865207369676e657200006044820152606401610473565b60008381526003602090815260408083203384529091528120805460ff191660011790556005805485908110610a0c57610a0c610d8d565b6000918252602082206005918202015481546001600160a01b03909116935086908110610a3b57610a3b610d8d565b6000918252602082206005918202016001015481546001600160a01b03909116935087908110610a6d57610a6d610d8d565b906000526020600020906005020160020154905085836001600160a01b0316836001600160a01b03167f7af0cb85a71853e1c677f674ad0b619256334768ac74fe4e809eaf9e67930a2f3385604051610adb9291906001600160a01b03929092168252602082015260400190565b60405180910390a4505050505050565b828054610af790610d52565b90600052602060002090601f016020900481019282610b195760008555610b5f565b82601f10610b3257805160ff1916838001178555610b5f565b82800160010185558215610b5f579182015b82811115610b5f578251825591602001919060010190610b44565b50610b6b929150610b6f565b5090565b5b80821115610b6b5760008155600101610b70565b600060208284031215610b9657600080fd5b5035919050565b60005b83811015610bb8578181015183820152602001610ba0565b83811115610bc7576000848401525b50505050565b600060018060a01b03808816835280871660208401525084604083015260a0606083015283518060a0840152610c0a8160c0850160208801610b9d565b921515608083015250601f91909101601f19160160c001949350505050565b80356001600160a01b0381168114610c4057600080fd5b919050565b60008060408385031215610c5857600080fd5b82359150610c6860208401610c29565b90509250929050565b634e487b7160e01b600052604160045260246000fd5b600080600060608486031215610c9c57600080fd5b610ca584610c29565b925060208401359150604084013567ffffffffffffffff80821115610cc957600080fd5b818601915086601f830112610cdd57600080fd5b813581811115610cef57610cef610c71565b604051601f8201601f19908116603f01168101908382118183101715610d1757610d17610c71565b81604052828152896020848701011115610d3057600080fd5b8260208601602083013760006020848301015280955050505050509250925092565b600181811c90821680610d6657607f821691505b60208210811415610d8757634e487b7160e01b600052602260045260246000fd5b50919050565b634e487b7160e01b600052603260045260246000fd5b634e487b7160e01b600052601160045260246000fd5b60008219821115610dcc57610dcc610da3565b500190565b60008251610de3818460208701610b9d565b9190910192915050565b6000600019821415610e0157610e01610da3565b506001019056fea2646970667358221220db8d51dbab8948372a0c84ab22a51ea95127e60999ad4f544558809e88a72d6c64736f6c63430008080033",
  "linkReferences": {},
  "deployedLinkReferences": {}
}